:100000000C944C000C9469030C9469030C946903E0
:100010000C9469030C9469030C9469030C946903B0
:100020000C9469030C9469030C9469030C946903A0
:100030000C9469030C9469030C9469030C94690390
:100040000C9469030C9469030C9469030C94690380
:100050000C9469030C9469030C9469030C94690370
:100060000C9469030C9469030C9469030C94690360
:100070000C9469030C9469030C9469030C94690350
:100080000C9469030C9469030C9469030100050F37
:100090000006E0050F05128011241FBECFEFD0E14E
:1000A000DEBFCDBFECE8F0E040E019C0B791A7910A
:1000B00037912791079107FD0EC097918791EF0126
:1000C000F92FE82F0BBF07900D92A217B307D9F7AE
:1000D000FE011BBE04C01D92A217B307E1F7E83969
:1000E000F40721F70E948A000C945703F894FFCF7D
:1000F0003E0048454C4C4F0049206C6561726E696A
:100100006E6700456D62656464656420737973741D
:03011000656D001A
:1001140085B7806885BF809109058093001180911F
:100124000A058093011180910B058093021180913F
:100134000C058093031180910D0590910E050E948A
:10014400960185E58093110580930A11809110052D
:10015400807F86608093100580930B110E94C202F9
:1001640028E040E062EF70E080E00E94320225E087
:1001740041E068EF70E080E00E94320223E043E057
:1001840063E071E080E00E9432022FE38DE093E0AF
:10019400215080409040E1F700C000000E943403E9
:1001A40061E082EA94E00E9404030F2EF2EAEF2E4B
:1001B400F4E0FF2EF02DDD24D3940CE011E1CFE028
:1001C400D5E0D8018C91888382FDA3C0F801808199
:1001D400888382FFFBCFF3E0DF1611F0D39402C0D3
:1001E400DD24D3940E9434036D2DC7010E940403BF
:1001F40090C0D8018C91888380FFFBCFB1E0DB16DF
:1002040011F0DA9404C00F2EF3E0DF2EF02D0E94DB
:1002140034036D2DC7010E94040380910F0581FDF5
:100224007DC0F8018081888381FFFBCFF2E0DF1677
:1002340071F023E0D21699F081E0D8121DC0D701E5
:100244009B968D919C919C97009789F415C0F7011A
:10025400ED5BFF4F80819181009759F40DC0F70148
:10026400E55AFF4F80819181009729F405C07C01F4
:1002740003C07C0101C07C010E9434036D2DC701C1
:100284000E94040380910F0583FD4BC0F801808117
:10029400888383FFFBCFD7011196AD90BC90129752
:1002A400A114B10409F457010E9434036D2DC50152
:1002B4000E940403750180910F0584FD82CFF8012B
:1002C4008081888384FFFBCFF1E0DF1621F022E0F8
:1002D400D21661F017C0D7019D96ED91FC919E97BF
:1002E400309781F061E08C9109950CC0F701EB5BCC
:1002F400FF4F0190F081E02D309721F060E0D701AD
:100304008C9109950E9434036D2DC7010E9404034A
:1003140058CF80910F0580FD80CF6BCF83FFB6CF80
:08032400CACF84FFCCCF4DCFFE
:10032C00CF93DF93EC019C01ADECBCEC0E94480335
:10033C00AC015695479556954795569547959A0114
:10034C00220F331FCA01880F991F880F991F880F1E
:10035C00991F820F931FFE01E81BF90BE150FB4F15
:10036C008081809307119A010E9448039695879586
:10037C0096958795969587959C01220F331F880F2C
:10038C00991F880F991F880F991F820F931F481B65
:10039C00590BFA01E150FB4F8081809306119E01AD
:1003AC003695279536952795ABE7B4E10E9448031F
:1003BC00AC01569547959A01ADECBCEC0E944803F4
:1003CC009695879596958795969587959C01220F7E
:1003DC00331F880F991F880F991F880F991F820F41
:1003EC00931F481B590BFA01E150FB4F80818093FE
:1003FC0005119E01369527953695279536952795A7
:10040C00A5ECB0E20E944803AC01529542954F70A6
:10041C0045275F7045279A01ADECBCEC0E94480360
:10042C009695879596958795969587959C01220F1D
:10043C00331F880F991F880F991F880F991F820FE0
:10044C00931F481B590BFA01E150FB4F808180939D
:08045C000411DF91CF91089516
:100464000F931F93CF93DF93A82FCB01413041F01B
:1004740028F0423039F0433039F007C030E805C085
:1004840030EC03C034E901C034ED230F20930E1186
:10049400E5E6F0E020812860208300002081277FAA
:1004A400208320E12A95F1F700C0FC015A2F0E9415
:1004B40062036623C9F00DE011E1C5E6D0E00196C0
:1004C400A11DF80160832881286028830000288109
:1004D400277F2883F3E0FA95F1F70000FC015A2FF7
:1004E4000E9462036111EBCFDF91CF911F910F91B5
:0204F400089569
:1004F600813099F028F08230E9F0833059F108957F
:10050600662321F08FEF8093110502C0109211052A
:100516008091110580930A11089591E0611101C03F
:1005260090E0809110058C7F892B80931005809335
:100536000B11089581E0611101C080E08370880F7E
:10054600880F90911005937F892B809310058093D7
:100556000B110895662351F08FEF8093001180935D
:1005660001118093021180930311089510920011D6
:0E0576001092011110920211109203110895BB
:1005840088E080936400AEE0B1E188E38C93E5E613
:10059400F0E080818860808300008081877F808391
:1005A400000082E48A95F1F700C08CE08C9380818E
:1005B4008860808300008081877F8083000092E4CC
:1005C4009A95F1F700C086E08C93808188608083DF
:1005D40000008081877F8083000082E48A95F1F7A0
:1005E40000C081E08C9380818860808300008081DA
:1005F400877F8083000087E893E10197F1F700C0CB
:040604000000089555
:100608001F93CF93DF93EC01162FBC016D5F7F4FD3
:1006180080E826E040E00E943202BE01695E7F4F1A
:1006280080E822E041E00E943202BE01615D7F4F16
:1006380080E822E042E00E943202C95BDF4FBE013F
:1006480080E822E043E00E94320220E0412F60EF80
:1006580070E080E00E943202DF91CF911F910895EF
:1006680081E080930E11E5E6F0E080818860808368
:1006780000008081877F8083000087E893E10197ED
:08068800F1F700C00000089525
:10069000A29FB001B39FC001A39F700D811D1124C3
:0E06A000911DB29F700D811D1124911D0895B2
:1006AE00EC010E946E030E946D03CE010E946F0347
:0606BE00CE010E946B0357
:0E06C40057FD03C05BBF6791089560810895E4
:0406D2000C94000084
:0406D6000E94760008
:0206DA00089581
:0206DC0008957F
:0206DE0008957D
:1006E0000217024D6F746F7220322000000000006C
:1006F000000000000000004F4E000000000000005D
:10070000000000000000000000000000007B024F1D
:10071000464600000000000000000000000000004D
:1007200000000000007B020000000000000000004C
:0D07300000000000000000000000000000BC
:10073D000117024D6F746F72203120000000000010
:10074D00000000000000004F4E00000000000000FF
:10075D00000000000000000000000000007B024FC0
:10076D0046460000000000000000000000000000F0
:10077D0000000000007B02000000000000000000EF
:0D078D00000000000000000000000000005F
:10079A0003E8034C6564000000000000000000004C
:1007AA00000000000000004F4E00000000000000A2
:1007BA00000000000000000000000000007B024F63
:1007CA004646000000000000000000000000000093
:1007DA0000000000007B0200000000000000000092
:0D07EA000000000000000000000000000002
:1007F70000E8034D6F746F72730000000000000083
:10080700000000000000004D6F746F72203100007F
:1008170000000000000000000000005D0100004D26
:100827006F746F72203200000000000000000000AB
:1008370000000000010000000000000000000000B0
:0D08470000000000000000000000000000A4
:1008540000E80352656C6179730000000000000039
:10086400000000000000004F4E00000000000000E7
:10087400000000000000000000000000007B024FA8
:1008840046460000000000000000000000000000D8
:1008940000000000007B02000000000000000000D7
:0D08A4000000000000000000000000000047
:1008B10000450448756D69646974790000000000A1
:1008C100000000000000004F4E000000000000008A
:1008D1000000000000000000000000000000004FC8
:1008E100464600000000000000000000000000007B
:1008F10000000000000000536574757000000000E6
:0D09010000000000000000000000000000E9
:10090E0000450454656D7065726174757265000002
:10091E00000000000000004F4E000000000000002C
:10092E000000000000000000000000000000004F6A
:10093E00464600000000000000000000000000001D
:10094E000000000000000053657475700000000088
:0D095E00000000000000000000000000008C
:10096B0000A20453657474696E67000000000000F8
:10097B0000000000000000446174650000000000EE
:10098B000000000000000000000000000000005309
:10099B0070656564000000000000000000000000AE
:1009AB00000000000000004368616E6E656C000083
:0D09BB00000000000000000000000000002F
:1009C80000A2044163747561746F727300000000C3
:1009D8000000000000000052656C6179730000009F
:1009E8000000000000000000000000740200004D3C
:1009F8006F746F72730000000000000000000000B8
:100A0800000000170200004C65647300000000003D
:0D0A18000000000000000000000000BA0116
:100A250000A20453656E736F72730000000000002E
:100A35000000000000000054656D706572617475FA
:100A450072650000000000000000002E0300004851
:100A5500756D69646974790000000000000000008C
:100A6500000000D1020000446174652654696D657B
:0D0A75000000000000000000000000000074
:100A82000000004D61696E206D656E75000000000A
:100A92000000000000000053656E736F72000000DA
:100AA20000000000000000000000004504000041BA
:100AB20063747561746F7200000000000000000032
:100AC200000000E803000053657474696E6700005B
:0D0AD20000000000000000000000008B0389
:0A0ADF00C0F9A4B0999282F880904B
:040AE90055555555B5
:020AED00D20431
:00000001FF
